:100000003DC057C07DCB43C954C053C052C051C03E
:1000100023CB4FC04EC04DC04CC0D6CA4AC049C009
:1000200048C0C7C99AC902CA44C043C042C041C0FF
:1000300040C03FC02AC61FC616C60BC6EEC5FEC5C9
:10004000FDC5F2C529C6CDCBD0CBD3CBD6CBD9CB32
:10005000DCCBDFCBE2CBE5CBE8CBEBCBEECBB9CB4C
:10006000BCCB83CD2DCDAACD12CDA1CDDFCCA1CCE3
:1000700084CC9BCC6ECC4ECC3DCC4CCD11241FBE41
:10008000CFEFCDBFDFE3DEBF1EE3A0E0BEE3EEE6D1
:10009000FFE102C005900D92AE34B107D9F72FE30E
:1000A000AEE4BEE301C01D92AF31B207E1F7C9DB98
:1000B00075CEA6CF8FEF9FEF0895FC019091593E2A
:1000C00093FF03C08FEF9FEF089582819381882370
:1000D00059F0811529E0920738F080937F3E909384
:1000E000803E80E090E008958AEE9FEF0895EEE470
:1000F000FEE325A5DC0112968D919C91139788272C
:10010000822B85A796A780E090E0089519D580E01E
:1001100090E00895FC01828193818E319D4019F019
:1001200080E090E00895BFDD80E090E00895FC015C
:10013000828193818130910509F46BC082309105F1
:1001400009F448C08330910591F18630910579F129
:100150008430910509F44AC08530910509F466C0E0
:100160008730910509F475C08A30910509F486C07D
:100170008B30910509F47CC08C30910509F484C062
:100180008D30910509F485C08E30910509F486C043
:100190000F9709F08FC08091593E90915A3E92601E
:1001A0008093593E90935A3E80E090E0089580916C
:1001B000593E90915A3E22E030E020935B3E3093CE
:1001C0005C3E807F82608093593E90935A3E80E0EF
:1001D00090E008958091593E90915A3E877F809398
:1001E000593E90935A3E80E090E008958091593EA8
:1001F00090915A3E23E030E020935B3E30935C3E8A
:10020000807F83608093593E90935A3E80E090E0D7
:1002100008958091593E90915A3E88608093593E4E
:1002200090935A3E40DD80E090E008958091593EE1
:1002300090915A3E887F84608093593E90935A3EB5
:1002400084E090E080935B3E90935C3E80E090E0A1
:10025000089588E0809305048091593E90915A3E1C
:100260009E7F8093593E90935A3E80E090E008959F
:1002700062E081E03FD780E090E0089561E081E0B6
:1002800039D780E090E0089581E096D780E090E053
:10029000089580E091D780E090E008958091593EE4
:1002A00090915A3E9D7F8093593E90935A3E80E0B4
:1002B00090E008958FEF9FEF0895EEE4FEE38FE363
:1002C000DF011D928A95E9F781E591ED878390879B
:1002D00082E090E08187928781E090E08387948735
:1002E0008EE192E181AB92AB85E59EE30895EF92BA
:1002F000FF920F931F93CF93DF9391E090934E3E25
:100300008823E9F0833081F0C0914F3EC23009F478
:1003100090C08B01C33008F451C0C330D9F0C43051
:1003200019F4823009F493C010924F3EC0E08C2F34
:10033000DF91CF911F910F91FF90EF9008959093CF
:100340004F3EC1E08C2FDF91CF911F910F91FF9015
:10035000EF900895813041F7FB0120818091513E5B
:100360009091523E822B8093513E9093523E8091C9
:10037000503E90E0803291050CF086C0FC01EE0FFB
:10038000FF1FE80FF91FEE0FFF1FE056F246C08176
:10039000D1810280F381E02DC093533ED093543E2F
:1003A000309709F45DC08FE49EE30995892B09F429
:1003B00057C0C1E085E080934F3EB9CFC13009F00E
:1003C000B3CF813009F456C0823009F0ADCF8091AF
:1003D000503E90E01092513E1092523E8032910574
:1003E0000CF050C0FC01EE0FFF1FE80FF91FEE0FDD
:1003F000FF1FE056F246E080F1800480F581E02D99
:10040000E092533EF092543E309719F08FE49EE311
:100410000995E114F104D1F1F70190818181909364
:10042000513E8093523EF801808384E080934F3E9A
:100430007ECF813009F078CFFB0180811092513E50
:100440008093523E83E080934F3EC1E070CF809115
:10045000513EFB01808385E080934F3EC1E067CF32
:10046000209709F4A6CF8091513E9091523E888307
:1004700099839FCFFB0180818093503E82E08093DF
:100480004F3E55CF80E0CFCFC0E094CF8091523E19
:10049000CACF8091593E90915A3E969587959695F0
:1004A0008795969587958170089520915A3E822F61
:1004B000869590E021E082278170089581110AC01D
:1004C0008091593E90915A3E9E7F8093593E9093E1
:1004D0005A3E08958091593E90915A3E9160809382
:1004E000593E90935A3E089580914E3E089581E082
:1004F00020915B3E30915C3E2230310509F080E076
:10050000089581E020915B3E30915C3E23303105BF
:1005100009F080E0089581E020915B3E30915C3EDF
:100520002430310509F080E00895EEE4FEE31586FD
:100530001686108208958091813E9091823E8F3F71
:100540002FEF920789F101968093813E9093823E2E
:100550002091873E3091883E2817390709F0089589
:100560002091833E3091843E8091893E90918A3ED5
:1005700028173907A1F72091853E3091863E80915A
:100580008B3E90918C3E2817390749F79CDB8823D6
:1005900031F38091593E90915A3E887F85608093D7
:1005A000593E90935A3E08951092813E1092823E99
:1005B0008091833E9091843E8F3F2FEF920741F0D0
:1005C00001968093833E9093843E80E090E0C0CF7C
:1005D0001092833E1092843E8091853E9091863E9B
:1005E0008F3F2FEF920741F001968093853E9093C5
:1005F000863E80E090E0ACCF1092853E1092863E21
:1006000080E090E0A5CF40E060E070E083E06FCE56
:10061000FACFA1D740E060E070E080E068DE47C339
:10062000CF93DF931F92CDB7DEB741E0BE016F5F7E
:100630007F4F82E05CDE898186D70F90DF91CF917A
:100640000895CF93DF931F92CDB7DEB779D7898313
:1006500040E0BE016F5F7F4F81E049DE811105C040
:100660007ED70F90DF91CF91089575D70F90DF91CE
:10067000CF91089589E093E080D780E193E073D72C
:1006800081E293E075D788E093E07CD783E093E044
:100690007ED783E093E080D78AD780E008958EC725
:1006A000CF93DF939B01AC01C0918D3ED0918E3EE4
:1006B0006F81788589859A8516DB2B853C854D85EC
:1006C0005E8534DBDA01C9012D813E814B815C817D
:1006D000052E000C660B770B84179507A607B70746
:1006E00048F421E0E0918F3EF091903E2683DF9127
:1006F000CF910895A901330F660B770B21E04817BE
:1007000059076A077B0770F320E0E0918F3EF09174
:10071000903E2683DF91CF910895CF92DF92EF92A2
:10072000FF920F931F93AB01BC0136E0769567955E
:10073000579547953A95D1F7E0918F3EF091903ECD
:1007400087819085A185B285483522E052076105F1
:10075000710568F58C019D01000F111F221F331FC9
:10076000000F111F221F331F000F111F221F331FE5
:10077000000F111F221F331F000F111F221F331FD5
:1007800068017901C81AD90AEA0AFB0AD701C60129
:10079000840F951FA61FB71F25E0B695A7959795BF
:1007A00087952A95D1F787839087A187B2878C3365
:1007B0009105A105B10548F421E026831F910F9111
:1007C000FF90EF90DF90CF90089581359105A105BE
:1007D000B105A0F316821F910F91FF90EF90DF906B
:1007E000CF900895853088F49DE0899FF001112411
:1007F000E353F14CA281B3811D921C920190F081D0
:10080000E02D8FEF9FEF808391830895CF93DF9347
:100810001092923E1092933E1092913E21E4EDECA4
:10082000FEE3DF011D922A95E9F79C01285F3F4F07
:100830002093DE3E3093DF3E2A5F3F4F2093EB3E16
:100840003093EC3E2A5F3F4F2093D13E3093D23E0F
:100850002A5F3F4F2093F83E3093F93E2A5F3F4F87
:100860002093053F3093063F265131092093DA3E0D
:100870003093DB3E2A5F3F4F2093E73E3093E83EC4
:10088000EC016696C093CD3ED093CE3E245F3F4FA1
:100890002093F43E3093F53E2A5F3F4F2093013F73
:1008A0003093023F265131092093DC3E3093DD3EE8
:1008B0002A5F3F4F2093E93E3093EA3EDC01589691
:1008C000A093CF3EB093D03E245F3F4F2093F63E9F
:1008D0003093F73E84968093033F9093043F81E0EA
:1008E0008093D33E8093E03E8093ED3E8093FA3E2A
:1008F0008093073F2EE03FE38FEF9FEF1D921C9206
:10090000888399833D962E173F0761F0A281B381BA
:10091000C081D1811D921C92888399833D962E17A8
:100920003F07A1F7DF91CF9108950ED58823E9F312
:10093000FFC48091913E882331F006D581110DC00E
:100940008091913E0895E0918D3EF0918E3E8081A0
:10095000F5D481E08093913E0895FAD4E0918D3EE4
:10096000F0918E3E21813281232B09F465C0BC01B8
:1009700080E090E02091923E3091933E4FE0429F84
:10098000F001439FF00D1124E050F24C0180F28100
:10099000E02D0995E0918F3EF091903EA481B581C4
:1009A000109711F08D939C93A281B381109741F021
:1009B0002D913C9111972817390710F48D939C9332
:1009C0000190F081E02D309739F02081318182173C
:1009D000930710F4808391831092913E8091923E10
:1009E0009091933E0196853091050CF11092923EC4
:1009F0001092933E80E090E04DE0489F9001499F27
:100A0000300D11242353314C20938F3E3093903E70
:100A10004FE0489F9001499F300D1124C90180503B
:100A2000924C80938D3E90938E3E80E0089580930B
:100A3000923E9093933EE0CF80E090E0ABCF853044
:100A4000910554F42DE0289FF001299FF00D112409
:100A5000E353F14C8681089581E00895089580E084
:100A600090E008958091953E9091963EA091973E9A
:100A7000B091983E0196A11DB11D8093953E909333
:100A8000963EA093973EB093983E8091943E8F5FA0
:100A9000843619F08093943E08951092943E4BCD85
:100AA0001092953E1092963E1092973E1092983E6C
:100AB0001092943E82E395E082D580E008956091A3
:100AC000953E7091963E8091973E9091983E089504
:100AD000CF92DF92EF92FF920F931F93C090953EBB
:100AE000D090963EE090973EF090983E2AE030E01D
:100AF00040E050E01BD989019A010C0D1D1D2E1DEF
:100B00003F1DC016D106E206F30698F474E062E0D9
:100B100070934704609347048091953E9091963E70
:100B2000A091973EB091983E80179107A207B30716
:100B300078F31F910F91FF90EF90DF90CF90089581
:100B40001092943E0895CF92DF92EF92FF920F930E
:100B50001F937B018C01E20EF31E041F151FB801C9
:100B6000A70181E0C090953ED090963EE090973EE0
:100B7000F090983E4C155D056E057F0508F080E00D
:100B80001F910F91FF90EF90DF90CF9008951092FA
:100B9000993E10929A3E10929B3E10929C3E10926B
:100BA0009D3E10929E3E10929F3EE6E4F4E084E06B
:100BB000808382E0808380E0089560919C3E709104
:100BC0009D3E80919E3E90919F3E24E130E040E02A
:100BD00050E0B9DF811101C0089571DF60939C3E40
:100BE00070939D3E80939E3E90939F3EE091993EF0
:100BF0008E2F90E08930910560F080919A3E90911F
:100C00009B3E01968770992780939A3E90939B3ED6
:100C10000895FC01E65EFF4F099484E0809346044A
:100C200082E080934504E9CF80919A3E90919B3E6B
:100C3000892B99F384E080934504F2CF80919A3E0A
:100C400080FFEBCF84E08093450482E080934604EC
:100C5000D4CF84E08093450480919A3E90919B3E4E
:100C600007979CF7DDCF84E08093450480919A3EFE
:100C700080FFD6CFEACF84E08093460480919A3EED
:100C800090919B3E892B09F3CBCF84E0809346045F
:100C900082E080934604B1CF80919A3E80FFD2CF0C
:100CA00084E080934604D1CF8093993E089584E0F8
:100CB000809347040895869680930E3F90930F3F4C
:100CC00080E00895CF93E0910E3FF0910F3F808137
:100CD00080FD30C083E090E0B2DE811141C0E09140
:100CE0000E3FF0910F3F80819181C0E081FD15C0E2
:100CF00084E090E0A4DE811147C0C11107C0CF910C
:100D00000895808191818D7F8083918381E0D6DBFE
:100D100088E080930604CF91089584E090E08FDE10
:100D2000E0910E3FF0910F3F882359F3808181FDC0
:100D3000E4CFDECF83E090E082DEE0910E3FF091E1
:100D40000F3F882331F0208120FFC4CF822FC0E0E5
:100D5000CDCF808191818E7F80839183C1E0C6CF8A
:100D6000E0910E3FF0910F3F8081918181608083FF
:100D7000918361E082E0BED1E0910E3FF0910F3FA0
:100D800080819181C1E0B2CFE0910E3FF0910F3FA1
:100D90008081918182608083918361E082E0AAD129
:100DA000B5CFE0910E3FF0910F3F808191819C0182
:100DB00022273370232B41F090FD03C084E090E0A4
:100DC0003ECE83E090E03BCE80E0089581E08093CA
:100DD000A03E10920A0A0895CF92DF92EF92FF92FE
:100DE0008AD47C0180E090E081D481E080930A0A7B
:100DF000C701855F91408B31954260F06091A23EC2
:100E00007091A33E61157105C1F4FF90EF90DF90E2
:100E1000CF9008952091A23E3091A33E2115310537
:100E200039F0C901B7016ED76330710508F498C075
:100E3000E092A23EF092A33EB701C701880F991F2E
:100E4000EE0CFF1CEE0CFF1CEE0CFF1C8E0D9F1D0C
:100E500059D7AB019B01ADECBCEC8AD79695879531
:100E600096958795969587959C01220F331F880F3D
:100E7000991F880F991F880F991F820F931F9A013E
:100E8000281B390BC9019A01069708F059C0ADEC2F
:100E9000BCEC6ED796958795969587959695879590
:100EA0002091A13E280F2093A13EA2B1A4700097EB
:100EB00009F4ABCF20E030E04091B03E5091B13E1C
:100EC0006091B23E7091B33E440F551F661F771F6D
:100ED0004093B03E5093B13E6093B23E7093B33EA8
:100EE000E0EBFEE3F290E290D290C290F7FE05C0F4
:100EF00041604483558366837783B701A601440F1D
:100F0000551F661F771F4083518362837383BEE33F
:100F1000E43AFB0739F7A11109C041604093A43EB0
:100F20005093A53E6093A63E7093A73E2F5F3F4F20
:100F30002817390709F6FF90EF90DF90CF900895BA
:100F400017D7969587959695879596958795019647
:100F50002091A13E280F2093A13EA2B1A470AACF58
:100F6000B9012E153F0538F4665F7F4F6093A23EAE
:100F70007093A33E47CF6A5071096093A23E70936D
:100F8000A33E40CF1092A23E1092A33E86EE96E082
:100F90005ED31092A03E1092A13E80E1E4EAFEE30F
:100FA000DF011D928A95E9F78CEE96E06BD1E0E0C7
:100FB000F4E08289887F8160828B80E0089580914F
:100FC000A03E882351F01092A03E8091A13E813234
:100FD00020F01092A13E81E0089580E008951092E3
:100FE000B43E8FEF9FEF8093B63E9093B73E109242
:100FF000B53E81E08093450480E00895CF93409111
:10100000B63E5091B73E4F3F8FEF5807A1F1CCE36A
:10101000E1E0F8E74F5F5F4F4093B63E5093B73E35
:101020009A01369527953695279536952795A7E306
:10103000BAE19ED686FF2CC0E09345048091B43E71
:101040008530D8F48330D8F4813040F04091B63EFA
:101050005091B73E493883E15807E0F21092B43E10
:101060008FEF9FEF8093B63E9093B73E1092B53EC0
:1010700081E080934504CF910895873078F74091BF
:10108000B63E5091B73E49398AE3580718F2E6CF89
:101090008091B53E9A01A9E8B8E8811116C068D6DA
:1010A0000024880F991F001C880F991F001C892F8E
:1010B000902DF89F9001F99F300D1124421753078E
:1010C00009F0BCCFE0934704B9CF52D696958795E7
:1010D000929582958F7089279F708927C89F90016C
:1010E000C99F300D11244217530709F0A7CFE09391
:1010F0004704A4CFCF93DF93D82FC62FD6D9811121
:1011000002C0D23091F0C13041F08C2F8D7F8430FD
:1011100021F081E08093B53E02C01092B53EC093AD
:10112000B43E1092B63E1092B73EDF91CF91089533
:1011300088968093103F9093113F83E08093B83E50
:101140001092B93E88E08093450480E00895809134
:10115000B83E833051F19091B93E9923A1F081308E
:1011600019F020F1823029F488E0809346048091C0
:10117000B83E1092B93EE091103FF091113F282FF8
:1011800030E020833183119B09C081110EC082E0C1
:101190008093B83E81E08093B93E0895823029F46F
:1011A0001092B83E81E08093B93E089588E0809324
:1011B00045048091B83EDDCF8093B83E81E08093B6
:1011C000B93E0895E0E1F4E0808188608193E831E0
:1011D00084E0F807C9F7E0E3F4E080818860819358
:1011E000E83384E0F807C9F7E0E5F4E0808188603F
:1011F0008193E83584E0F807C9F70895CF93DF932A
:10120000E1DFC0E0D4E088E08883A0E2B4E084E0DD
:101210008C93E0E4F4E09FE190831C8214968C931D
:1012200014971482188A198A8A8B8B8B8C8B8D8BDE
:101230008E8B8F8B50961C92509751961C92519783
:1012400052961C92529753961C92539754968C9395
:10125000549755968C93559756961C925697579639
:101260001C92108A118A128A138A148A158A168A85
:10127000178AE0E0F2E01082118212821382DF917D
:10128000CF9108958093BA3E9093BB3E08951F92EC
:101290000F920FB60F9211242F933F934F935F93AA
:1012A0006F937F938F939F93AF93BF93EF93FF932E
:1012B0001A9B05C0E091BA3EF091BB3E09958FEFB5
:1012C00083B9FF91EF91BF91AF919F918F917F91E2
:1012D0006F915F914F913F912F910F900FBE0F90A3
:1012E0001F90189540E068ED80E191E007D0E0E1C3
:1012F000F1E012821382789480E00895FC0164BFCB
:1013000040830895E0E0F6E0168A86E08183128249
:1013100013821482148611861286168288E08583D1
:10132000148A158A128A138A81E0808380E00895E6
:10133000E0E0F6E080818E7F80830895E0E0F6E0D3
:10134000868381E08087089580910B0681700895DF
:10135000809110069091110608951F920F920FB67A
:101360000F9211242F933F934F935F936F937F932B
:101370008F939F93AF93BF93EF93FF93E091BC3E06
:10138000F091BD3E309709F0099582E080930B06FD
:10139000FF91EF91BF91AF919F918F917F916F914D
:1013A0005F914F913F912F910F900FBE0F901F9023
:1013B00018951F920F920FB60F9211248F9381E010
:1013C00080930B068F910F900FBE0F901F90189572
:1013D000E0EAF0E083E3808382E0818380E00895A7
:1013E000E0E1F8E0108212828AE68487168681ECBA
:1013F000818712861586138610921C3F10921D3F1E
:101400001092183F1092193F1092163F1092173FFA
:1014100010921A3F10921B3F1092143F1092153FEA
:101420001092123F1092133F80E008951F920F9286
:101430000FB60F9211242F933F934F935F936F93A7
:101440007F938F939F93AF93BF93EF93FF9380917D
:101450001B0883FF18C0E091143FF091153F3097AF
:1014600009F00995FF91EF91BF91AF919F918F91F5
:101470007F916F915F914F913F912F910F900FBE90
:101480000F901F90189580911B0882FF07C0E09174
:10149000123FF091133F309721F7E4CF80911B0862
:1014A00086FF1AC080911B0880FF16C0E091163F8E
:1014B000F091173F309709F0099580911B0881FF43
:1014C000D1CFE091183FF091193F309709F009957D
:1014D00083E080931A08C6CF80911B0887FF13C052
:1014E00080911B0881FF24C080911B0884FFE9CFF5
:1014F00080911B08806C80931B0882E080931A08FF
:1015000080911B08AFCF80911B0886FFABCF8091E5
:101510001B0880FDA7CFE0911A3FF0911B3F309749
:1015200009F0099582E080931A0880911A089ACFF1
:10153000E0911C3FF0911D3F309709F092CF92CF80
:1015400080911D080895E0E1F8E085878285836039
:1015500082878585089583E080931A08089586E040
:1015600080931A0808958093183F9093193F089527
:1015700080931C3F90931D3F08958093163F909356
:10158000173F089580931A3F90931B3F08958093CF
:10159000143F9093153F08958093123F9093133F0B
:1015A0000895E0E1F8E08185816081870895F9CFB1
:1015B000E0E1F8E081858E7F81870895F9CF8093FF
:1015C000BE3E9093BF3E08951F920F920FB60F92AA
:1015D00011242F933F934F935F936F937F938F9338
:1015E0009F93AF93BF93EF93FF938091460A80FF41
:1015F0000AC0E091BE3EF091BF3E309709F00995D8
:1016000081E08093460AFF91EF91BF91AF919F9146
:101610008F917F916F915F914F913F912F910F909B
:101620000FBE0F901F901895E0E4FAE08FE493EC62
:10163000848795871286138611821086148281E032
:10164000858316821186808380E0089508958093B3
:101650004B3E90934C3E08951F920F920FB60F92FF
:1016600011242F933F934F935F936F937F938F93A7
:101670009F93AF93BF93EF93FF93E0914B3EF09115
:101680004C3E309709F0099581E080930B0AFF9159
:10169000EF91BF91AF919F918F917F916F915F91EA
:1016A0004F913F912F910F900FBE0F901F90189563
:1016B000E0E0FAE083E294EF80A791A782A793A7E6
:1016C00084A795A710A211A2118227E0228313827A
:1016D0001482158216821782168611861286138648
:1016E00086A397A31786208380E008958093200A1D
:1016F0009093210A08958091200A9091210A0895DB
:101700001F920F920FB60F9211248F9381E0809356
:101710008A008F910F900FBE0F901F90189540E098
:1017200068ED88E790E0EADD40E068ED8CE790E066
:10173000E5DD40E068ED80E790E0E0DD41E068ED68
:1017400081E690E0DBDD40E068ED80E690E0D6DD0C
:1017500040E068ED82E690E0D1DD80E008954EDD66
:1017600040E068ED80E890E0C9DDE0E8F0E0118657
:10177000108640E068ED80E091E0C0DDD0DF40E021
:1017800068ED80E590E0BADD2BDE22DEBBDD90DF88
:10179000A9DD4ACFCF93C82F862FC0931E3F84DA8E
:1017A0008ED96093C93E7093CA3E8093CB3E90938E
:1017B000CC3E80E69EE953D98C2F90E08E30910587
:1017C00020F084E39FE9CF914AC9FC01ED5DFF4F12
:1017D000099481E19FE9CF9142C981E29FE9CF91CC
:1017E0003EC98AE69EE9CF913AC984E79EE9CF9146
:1017F00036C987E89EE9CF9132C985E99EE9CF9144
:101800002EC983EA9EE9CF912AC982EB9EE9CF9146
:1018100026C981EC9EE9CF9122C981ED9EE9CF9145
:101820001EC98EED9EE9CF911AC988EE9EE9CF912F
:1018300016C984EF9EE9CF9112C982E09FE9CF914A
:101840000EC98DDF80E18093450498E090934504B4
:1018500081E0809345049093050410921E3F1092FE
:10186000C93E1092CA3E1092CB3E1092CC3E1092CE
:10187000C33E1092C43E1092C53E1092C63E809365
:10188000C23E1092C13E1092C03E1092C73E1092CE
:10189000C83E80E0E3D804D9EDD60FD58C010BDA31
:1018A000C801B4D774D981E0FFD96CDB98DBC801DB
:1018B0003FDCEE24E394D0E1C8E074E6F72E80919B
:1018C000C73E9091C83E01968093C73E9093C83E14
:1018D00030D873D993DB3BDC72DB8111E092C03EE0
:1018E00080911E3F90E08D30910588F4FC01EF5C03
:1018F000FF4F099456DA811104C08091C03E8823BD
:1019000031F061E082E0F6DB62E080E043DF1092DC
:10191000C03ED5CF6091C93E7091CA3E8091CB3E0A
:101920009091CC3E20ED37E040E050E00CD9882388
:1019300071F367E08BE02EDF68E873E180E090E010
:10194000C7D8D0934504C0930604C0930004EDD5D6
:10195000DECF6091C93E7091CA3E8091CB3E90919E
:10196000CC3E20E233E040E050E0EDD8882379F22D
:1019700062E085E00FDFD9D5CACF6091C93E709192
:10198000CA3E8091CB3E9091CC3E20ED37E040E0C6
:1019900050E0D9D8882309F4BACF64E088E0FADEB1
:1019A00062E370E080E090E0CBCF79D6BED7F894C8
:1019B000FFCF88D96ED5882331F1F80182A593A590
:1019C0002091C23E222309F434C1892F99279C011A
:1019D000220F331F220F331F820F931FF89E900197
:1019E000F99E300D112440E050E06091C33E7091AB
:1019F000C43E8091C53E9091C63EA5D8882319F07B
:101A000068E08CE0C7DE73D5811138C17AD58111C9
:101A10002CC181D5882309F47ACF66E087E0BADE4D
:101A200063E082E067DB83E0C7DB71CF32D58823D8
:101A300031F1F80182A593A52091C23E222309F439
:101A4000DBC0892F99279C01220F331F220F331FE0
:101A5000820F931FF89E9001F99E300D112440E0F3
:101A600050E06091C33E7091C43E8091C53E90911C
:101A7000C63E69D8882319F068E08CE08BDE34D547
:101A8000882309F444CF63E086E084DE40CF81E020
:101A900090E0D5D7811106C082E090E0D0D78823AE
:101AA00009F4ACC00CD86093C93E7093CA3E8093D1
:101AB000CB3E9093CC3E82E095D681E093D627CF63
:101AC00081E090E0BCD78111B6C06091C93E7091B1
:101AD000CA3E8091CB3E9091CC3E2CE231E040E07A
:101AE00050E031D8882309F412CF61E082E052DE61
:101AF000E6D76093C93E7093CA3E8093CB3E9093E5
:101B0000CC3ED0934604C0930504C093000483E008
:101B100053DBFDCE8091C13E8F5F8093C13E843008
:101B200008F49FC064E088E035DE64E670E080E0A1
:101B300090E0CED7D0934504C0930604C093000430
:101B4000F4D465E082E0D6DA68E873E180E090E002
:101B5000BFD7B5D76093C33E7093C43E8093C53E54
:101B60009093C63EE092C23ED2CE81E090E067D72D
:101B700081118DC06091C93E7091CA3E8091CB3E6B
:101B80009091CC3E2CE231E040E050E0DCD788235D
:101B900009F4BDCE61E081E0FDDD91D76093C93EDF
:101BA0007093CA3E8093CB3E9093CC3EB0CE64E01F
:101BB00082E0A0DA62E085E0EDDDA9CE81E090E090
:101BC0003ED781116FCF82E090E039D781116ACF83
:101BD0006091C93E7091CA3E8091CB3E9091CC3EBF
:101BE00028E532E040E050E0AED7882309F48FCEFC
:101BF00061E083E0CFDD8BCE99272CCF80E090E0B1
:101C00001ED781114FCF6091C93E7091CA3E80911D
:101C1000CB3E9091CC3E2CE231E040E050E093D7B7
:101C2000882309F474CE61E084E0B4DD80E0DAD585
:101C30006ECE9927D3CE6091C93E7091CA3E8091F5
:101C4000CB3E9091CC3E2CE231E040E050E07BD79F
:101C5000882309F432CF61E080E09CDD83E0ACDAD8
:101C60002CCF60E080E096DD60CF65E089E092DD1A
:101C700063E082E03FDA83E09FDACBCE66E08AE081
:101C800089DD63E082E036DA83E096DABFCE17D7EB
:101C90006093C93E7093CA3E8093CB3E9093CC3EF6
:101CA00081E0A0D534CE1092C23E1092C13E07D73B
:101CB0006093C33E7093C43E8093C53E9093C63EEE
:101CC0008DE39FE9CCC680911E3F8B3029F08CE5D7
:101CD0009FE9C5D680E0089510921E3F8CE49FE9ED
:101CE000BED681E00895DB018F939F934DD0BF91C5
:101CF000AF91A29F800D911DA39F900DB29F900D5B
:101D000011240895AA1BBB1B51E107C0AA1FBB1FCA
:101D1000A617B70710F0A61BB70B881F991F5A9577
:101D2000A9F780959095BC01CD010895A1E21A2EE6
:101D3000AA1BBB1BFD010DC0AA1FBB1FEE1FFF1F6F
:101D4000A217B307E407F50720F0A21BB30BE40BBF
:101D5000F50B661F771F881F991F1A9469F7609506
:101D60007095809590959B01AC01BD01CF010895C0
:101D7000A29FB001B39FC001A39F01D0B29F700D7D
:101D8000811D1124911D0895F3DFA59F900DB49F2F
:101D9000900DA49F800D911D11240895F894FFCFFC
:101DA000553E5A000000573E5A000000593E5A0066
:101DB00000005B3E5A000000000097000000000099
:101DC0008A0000007F3E5D0000000000000000006F
:101DD0000000000000000000000000005D3E000068
:101DE00000005F3E00000000613E00000000633E16
:101DF00000000000653E00000000673E000000009B
:101E0000693E000000006B3E000000006D3E0000D7
:101E100000000000000000007B3E770000007D3ED7
:101E200000000000000000000000000000000000B2
:101E3000000000000000000000000000813E86005D
:101E40000000833E86000000853E86000000873E3D
:101E500000000000893E000000008B3E00000000F2
:101E60000D0A474F544F2D2D3E004D41494E5F49BD
:101E7000444C45004D41494E5F35565F424F4152FB
:101E8000445F474F4F44004D41494E5F46414E5FCE
:101E9000474F4F44004D41494E5F3556525F474FC3
:101EA0004F44004D41494E5F335633525F474F4FC9
:101EB00044004D41494E5F5250495F535441525482
:101EC000004D41494E5F5250495F4F4E4C494E457F
:101ED000004D41494E5F50524548414C54004D41E0
:101EE000494E5F48414C54004D41494E5F52454276
:101EF0004F4F54004D41494E5F50524550444F574B
:101F00004E004D41494E5F504F574552444F574E3A
:101F1000004D41494E5F57444F475F4552524F5223
:101F2000004D41494E5F564F4C544147455F455225
:101F3000524F52004D41494E5F554E4B000D0A57CE
:101F4000444F472052454652455348000D0A464FDC
:101F500052434520504F5745525550000D0A414CB1
:0E1F6000524541445920504F574552454400C8
:101F6E00045003B80B100EF4100000000001000521
:101F7E0050035C12B414E82100000000010006506A
:101F8E00035C12B414E821000000000100088D0368
:101F9E001027A8610000000000000000098D03104A
:0E1FAE0027A8610000000000000000260B00C4
:02000004008278
:090000000000020000C40500002C
:00000001FF
